:100000000C942A000C9438030C9447000C9447007D
:100010000C9447000C9447000C9447000C94470044
:100020000C9447000C9447000C9447000C94210357
:100030000C9447000C9447000C9447000C94470024
:100040000C9447000C9447000C9447000C94470014
:100050000C94470011241FBECFE5D8E0DEBFCDBF12
:1000600010E0A0E6B0E0EEECFFE002C005900D92DB
:10007000A237B107D9F720E0A2E7B0E001C01D9296
:10008000AE37B207E1F70E945B030C94E5070C94CE
:10009000000060E081E40E944C0361E081E40E9482
:1000A0004C0362E081E40E944C0360E082E40E9421
:1000B0004C0361E082E40E944C0362E082E40E940F
:1000C0004C030E94F70485B7836085BF8BB78064BB
:1000D0008BBF089560E081E40E9450030E94FE04FB
:1000E00080917200909173004497D0F31092730046
:1000F000109272000E940505809176009091770021
:10010000019709F0B6C060E081E40E94520481309A
:1001100009F0AFC060E081E40E9454030E94FE0435
:100120001CC061E081E40E94580361E082E40E9407
:10013000580309C0809174009091750001969093C6
:100140007500809374008091740090917500C2973F
:1001500088F3109275001092740080917200909153
:1001600073004497F0F21092750010927400109290
:100170007300109272000E94050561E081E40E9404
:10018000540361E082E40E94540362E081E40E942F
:10019000500360E082E40E9450030E94FE048091BC
:1001A0007200909173004497D0F3109273001092F4
:1001B00072000E94050562E081E40E94540360E041
:1001C00082E40E9454030E94FE041CC061E081E4AA
:1001D0000E94580361E082E40E94580309C08091A4
:1001E000740090917500019690937500809374004F
:1001F0008091740090917500C29788F310927500F9
:100200001092740080917200909173004497F0F204
:100210001092750010927400109273001092720088
:100220000E94050561E081E40E94540361E082E4DC
:100230000E94540360E081E40E94500362E082E483
:100240000E9450030E94FE048091720090917300FE
:100250004497D0F310927300109272000E9405052B
:1002600060E081E40E94540362E082E40E9454034F
:1002700004C060E081E40E94540310927700109261
:1002800076000E94FE0418C061E081E40E945803D9
:1002900009C080917400909175000196909375004B
:1002A000809374008091740090917500C29788F3D8
:1002B00010927500109274008091720090917300FA
:1002C000449710F31092750010927400109273000E
:1002D000109272000E94050561E081E40E945403BF
:1002E0008091760090917700019709F0DEC00E941E
:1002F000FE041CC061E081E40E94580361E082E4D6
:100300000E94580309C08091740090917500019675
:1003100090937500809374008091740090917500A3
:10032000C29788F310927500109274008091720049
:10033000909173004497F0F210927500109274003F
:1003400010927300109272000E94050561E081E432
:100350000E94540361E082E40E94540362E081E45D
:100360000E94500360E082E40E9450030E94FE0459
:1003700080917200909173004497D0F310927300B3
:10038000109272000E94050562E081E40E9454030D
:1003900060E082E40E9454030E94FE041CC061E0FD
:1003A00081E40E94580361E082E40E94580309C07E
:1003B00080917400909175000196909375008093E0
:1003C00074008091740090917500C29788F3109228
:1003D00075001092740080917200909173004497A0
:1003E000F0F2109275001092740010927300109247
:1003F00072000E94050561E081E40E94540361E0FF
:1004000082E40E94540360E081E40E94500362E0B1
:1004100082E40E9450030E94FE0480917200909139
:1004200073004497D0F310927300109272000E94F0
:10043000050560E081E40E94540362E082E40E94CA
:1004400054030E94FE0418C061E081E40E94580336
:1004500009C0809174009091750001969093750089
:10046000809374008091740090917500C29788F316
:100470001092750010927400809172009091730038
:10048000449710F31092750010927400109273004C
:10049000109272000E94050561E081E40E945403FD
:1004A00062E081E40E94500304C062E081E40E94A3
:1004B000500310927700109276000E94FE04809103
:1004C0007200909173004497D0F3109273001092D1
:1004D00072000E9405058091760090917700019747
:1004E00009F077C062E081E40E945204813009F093
:1004F00070C060E082E40E9450030E94FE0480917C
:100500007200909173004497D0F310927300109290
:1005100072000E94050562E081E40E94540360E0DD
:1005200082E40E9454030E94FE041CC061E081E446
:100530000E94580361E082E40E94580309C0809140
:1005400074009091750001969093750080937400EB
:100550008091740090917500C29788F31092750095
:100560001092740080917200909173004497F0F2A1
:100570001092750010927400109273001092720025
:100580000E94050561E081E40E94540361E082E479
:100590000E94540360E081E40E94500362E082E420
:1005A0000E9450030E94FE0480917200909173009B
:1005B0004497D0F310927300109272000E940505C8
:1005C00060E081E40E94540362E082E40E945403EC
:1005D00033C062E081E40E9454030E94FE0418C00C
:1005E00061E081E40E94580309C0809174009091F9
:1005F000750001969093750080937400809174004B
:1006000090917500C29788F3109275001092740053
:100610008091720090917300449710F310927500CE
:100620001092740010927300109272000E940505DF
:1006300061E081E40E9454031092770010927600EA
:1006400008951F920F920FB60F9211248F939F93CC
:100650008091720090917300019690937300809343
:1006600072009F918F910F900FBE0F901F90189561
:100670001F920F920FB60F9211248F939F9381E0D8
:1006800090E090937700809376009F918F910F90E8
:100690000FBE0F901F90189541E00E9460030895CF
:1006A00041E00E94D903089540E00E94D9030895D3
:1006B0000E94B70408950E9449000E946A00FDCF7D
:1006C000823419F118F4813439F06AC08334B1F1FD
:1006D000843409F44CC064C0413059F42AB381E039
:1006E00090E002C0880F991F6A95E2F7822B8ABBBF
:1006F00008952AB381E090E002C0880F991F6A959F
:10070000E2F7809582238ABB0895413059F427B3DC
:1007100081E090E002C0880F991F6A95E2F7822B72
:1007200087BB089527B381E090E002C0880F991F2E
:100730006A95E2F78095822387BB0895413059F48A
:1007400024B381E090E002C0880F991F6A95E2F718
:10075000822B84BB089524B381E090E002C0880F0F
:10076000991F6A95E2F78095822384BB08954130F2
:1007700059F421B381E090E002C0880F991F6A9577
:10078000E2F7822B81BB089521B381E090E002C0A3
:10079000880F991F6A95E2F78095822381BB08959F
:1007A00080E690E09F938F930E9407050F900F9033
:1007B0000895823419F118F4813439F06AC0833411
:1007C000B1F1843409F44CC064C0413059F42BB306
:1007D00081E090E002C0880F991F6A95E2F7822BB2
:1007E0008BBB08952BB381E090E002C0880F991F66
:1007F0006A95E2F7809582238BBB0895413059F4C6
:1008000028B381E090E002C0880F991F6A95E2F753
:10081000822B88BB089528B381E090E002C0880F46
:10082000991F6A95E2F78095822388BB089541302D
:1008300059F425B381E090E002C0880F991F6A95B2
:10084000E2F7822B85BB089525B381E090E002C0DA
:10085000880F991F6A95E2F78095822385BB0895DA
:10086000413059F422B381E090E002C0880F991F13
:100870006A95E2F7822B82BB089522B381E090E073
:1008800002C0880F991F6A95E2F78095822382BB88
:10089000089580E690E09F938F930E9407050F9044
:1008A0000F9008958234E9F018F4813431F055C086
:1008B000833459F18434E9F150C049B381E090E0C8
:1008C0009C01062E02C0220F331F0A94E2F7842FE8
:1008D00090E08223932302C0959587956A95E2F76D
:1008E000089546B381E090E09C01062E02C0220FDD
:1008F000331F0A94E2F7842F90E08223932302C0EF
:10090000959587956A95E2F7089543B381E090E065
:100910009C01062E02C0220F331F0A94E2F7842F97
:1009200090E08223932302C0959587956A95E2F71C
:10093000089540B381E090E09C01062E02C0220F92
:10094000331F0A94E2F7842F90E08223932302C09E
:10095000959587956A95E2F7089580E690E09F93D4
:100960008F930E9407050F900F9080E008958234C6
:10097000A1F018F4813431F031C08334C9F08434EB
:1009800011F12CC02BB381E090E002C0880F991FB9
:100990006A95E2F782278BBB089528B381E090E047
:1009A00002C0880F991F6A95E2F7822788BB0895D5
:1009B00025B381E090E002C0880F991F6A95E2F7A5
:1009C000822785BB089522B381E090E002C0880FA2
:1009D000991F6A95E2F7822782BB089580E690E02E
:1009E0009F938F930E9407050F900F90089513BE59
:1009F00012BE789489B7816089BF089583B78160FA
:100A000083BF83B7846083BF089513BE0895A0E0B9
:100A1000B0E0EDE0F5E00C94BE07AE014B5F5F4F38
:100A2000FA0161917191AF0180917A0090917B0000
:100A30000E941D05E2E00C94DA07ABE0B0E0E3E2CF
:100A4000F5E00C94AE076C017B018A01FC01178272
:100A50001682838181FFCCC1CE0101963C01F60153
:100A60009381F70193FD859193FF81917F01882305
:100A700009F4BAC1853239F493FD859193FF8191D0
:100A80007F01853229F4B60190E00E941407E7CF78
:100A9000912C212C312CFFE1F315D8F08B3279F019
:100AA00038F4803279F08332A1F4232D20611DC007
:100AB0008D3261F0803369F4232D216016C0832DBF
:100AC0008260382EE32DE4603E2E2AC0F32DF860BC
:100AD0001DC037FC2DC020ED280F2A3040F08E328B
:100AE000B9F436FC81C1232D2064322E19C036FEA4
:100AF00006C08AE0989E200D1124922E11C0EAE0D3
:100B00002E9E200D1124222EF32DF0623F2E08C0C0
:100B10008C3621F4832D8068382E02C0883641F44B
:100B2000F70193FD859193FF81917F018111B3CFEF
:100B3000982F9F7D9554933028F40C5F1F4F9FE3AF
:100B400099830DC0833631F0833771F0833509F016
:100B500059C021C0F801808189830E5F1F4F88240E
:100B60008394912C530113C02801F2E04F0E511CC5
:100B7000F801A080B18036FE03C0692D70E002C08C
:100B80006FEF7FEFC5010E9409074C018201F32D31
:100B9000FF773F2E16C0280122E0420E511CF801BB
:100BA000A080B18036FE03C0692D70E002C06FEFF7
:100BB0007FEFC5010E94FE064C01F32DF0683F2E29
:100BC000820133FC1BC0822D90E088169906B0F498
:100BD000B60180E290E00E9414072A94F4CFF50158
:100BE00037FC859137FE81915F01B60190E00E944C
:100BF000140721102A9421E0821A9108811491048B
:100C000071F7E8C0843611F0893641F5F80137FEF6
:100C100007C060817181828193810C5F1F4F08C082
:100C200060817181072E000C880B990B0E5F1F4F9E
:100C3000F32DFF763F2E97FF09C090958095709514
:100C400061957F4F8F4F9F4FF0683F2E2AE030E035
:100C5000A3010E945007882E861845C0853731F4BD
:100C6000232D2F7EB22E2AE030E025C0932D997FD0
:100C7000B92E8F36C1F018F4883579F0B5C08037B9
:100C800019F0883721F0B0C0E92FE061BE2EB4FE24
:100C90000DC0FB2DF460BF2E09C034FE0AC0292F01
:100CA0002660B22E06C028E030E005C020E130E02A
:100CB00002C020E132E0F801B7FE07C06081718117
:100CC000828193810C5F1F4F06C06081718180E03B
:100CD00090E00E5F1F4FA3010E945007882E8618D8
:100CE000FB2DFF773F2E36FE0DC0232D2E7FA22E2B
:100CF000891458F434FE0BC032FC09C0832D8E7E5B
:100D0000A82E05C0B82CA32C03C0B82C01C0B92C48
:100D1000A4FE0FC0FE01E80DF11D8081803321F497
:100D20009A2D997EA92E09C0A2FE06C0B394B39451
:100D300004C08A2D867809F0B394A3FC11C0A0FEEC
:100D400006C0B21488F4280C922C9B180EC0B21462
:100D500060F4B60180E290E00E941407B394F7CFEC
:100D6000B21418F42B1802C0982C212CA4FE10C029
:100D7000B60180E390E00E941407A2FE17C0A1FC18
:100D800003C088E790E002C088E590E0B6010CC09F
:100D90008A2D867859F0A1FE02C08BE201C080E264
:100DA000A7FC8DE2B60190E00E941407891438F484
:100DB000B60180E390E00E9414079A94F7CF8A94DA
:100DC000F301E80DF11D8081B60190E00E94140747
:100DD0008110F5CF222009F442CEB60180E290E0E6
:100DE0000E9414072A94F6CFF6018681978102C0EB
:100DF0008FEF9FEF2B96E2E10C94CA07FC01059060
:100E0000615070400110D8F7809590958E0F9F1F0C
:100E10000895FC016150704001900110D8F7809551
:100E200090958E0F9F1F08950F931F93CF93DF937D
:100E3000FB01238121FD03C08FEF9FEF2CC022FF18
:100E400016C046815781248135814217530744F4E7
:100E5000A081B1819D012F5F3F4F318320838C930F
:100E6000268137812F5F3F4F3783268314C08B0144
:100E7000EC01FB010084F185E02D0995892BE1F659
:100E8000D80116968D919C911797019617969C9371
:100E90008E931697CE01DF91CF911F910F910895F8
:100EA000FA01AA27283051F1203181F1E8946F939B
:100EB0006E7F6E5F7F4F8F4F9F4FAF4FB1E03ED041
:100EC000B4E03CD0670F781F891F9A1FA11D680FDF
:100ED000791F8A1F911DA11D6A0F711D811D911D12
:100EE000A11D20D009F468943F912AE0269F112487
:100EF0003019305D3193DEF6CF010895462F4770EB
:100F0000405D4193B3E00FD0C9F7F6CF462F4F7045
:100F1000405D4A3318F0495D31FD4052419302D0A3
:100F2000A9F7EACFB4E0A695979587957795679549
:100F3000BA95C9F700976105710508959B01AC0149
:100F40000A2E06945795479537952795BA95C9F770
:100F5000620F731F841F951FA01D08952F923F924B
:100F60004F925F926F927F928F929F92AF92BF92B9
:100F7000CF92DF92EF92FF920F931F93CF93DF9365
:100F8000CDB7DEB7CA1BDB0B0FB6F894DEBF0FBEC2
:100F9000CDBF09942A88398848885F846E847D840F
:100FA0008C849B84AA84B984C884DF80EE80FD8011
:100FB0000C811B81AA81B981CE0FD11D0FB6F89487
:0E0FC000DEBF0FBECDBFED010895F894FFCF48
:100FCE00496E76616C696420506F7274204E616D4B
:020FDE006500AC
:00000001FF
